:100229003F065B4F666D7D077F6F80FEFDFBF7EF35
:03023900DFBF7FA5
:05001C00010800C10015
:10023C00759850438920758DFDD28ED2AFD2AC22E9
:1000260012023CD2ACE508640560030201087411B3
:100036002508F8E4F6F508AF11AE12AD13AC14AB13
:1000460015C3EF648094B04022D3EF648094B95016
:100056001AEFF5823395E0F58374F92582F58274FB
:10006600013583F583E493F5098003E4F509C3EECE
:10007600648094B0401FD3EE648094B95017AF06E5
:10008600EF3395E0FE74F92FF58274013EF583E4B3
:1000960093F50A8003E4F50ABD2E09900233E49332
:1000A600F50B8003E4F50BC3EC648094B0401FD3DA
:1000B600EC648094B95017AF04EF3395E0FE74F901
:1000C6002FF58274013EF583E493F50C8003E4F585
:1000D6000CC3EB648094B0401FD3EB648094B9509A
:1000E60017AF03EF3395E0FE74F92FF58274013EE6
:1000F600F583E493F50D8003E4F50DE4F510F50FB3
:10010600F50EE4F51BF51CC3E51C9464E51B940091
:10011600400302002B7D08E4FF1201B8051CE51C14
:0601260070E5051B80E1FD
:030023000201EAED
:0B01EA00C0E0C0D075D000C000C0070E
:1001F500309815C298AF9974112508F8A607050817
:08020500E508B40A03750800C6
:09020D00D007D000D0D0D0E032BF
:080257008F993099FDC2992234
:10021600120003FF600C120257740129F9E43AFA3E
:0302260080EE2245
:0B024C00EF1FAC0670011E4C70F62284
:0201B800AB0793
:1001BA00E4FAEAC39D5028E4F580D2A2C2A2EA2B4F
:1001CA0090023493F580D2A3C2A374092AF8E6F503
:0F01DA0080D2A2C2A27FC87E0012024C0A80D33C
:0101E90022F3
:0300000002012CCE
:0C012C00787FE4F6D8FD75812002017395
:10000300BB010689828A83E0225002E722BBFE02FB
:09001300E32289828A83E493222E
:10013800020026E493A3F8E493A34003F68001F2B7
:1001480008DFF48029E493A3F85407240CC8C333C8
:10015800C4540F4420C8834004F456800146F6DF97
:10016800E4800B010204081020408090001CE47E0B
:10017800019360BCA3FF543F30E509541FFEE4938C
:10018800A360010ECF54C025E060A840B8E493A353
:10019800FAE493A3F8E493A3C8C582C8CAC583CA7E
:1001A800F0A3C8C582C8CAC583CADFE9DEE780BE36
:0100210000DE
:00000001FF
