:100221003F065B4F666D7D077F6F80FEFDFBF7EF3D
:03023100DFBF7FAD
:03024A00010800A8
:0E023400759850438920758DFDD28ED2AF2271
:1001D800120234D2ACE508B4050A2411F8E4F6F5A5
:0D01E800081200267D05E4FF12017680E874
:080242008F993099FDC2992249
:10020E001201F5FF600C120242740129F9E43AFA68
:03021E0080EE224D
:030023000201AC2B
:0B01AC00C0E0C0D075D000C000C0074C
:1001B700309815C298AF9974112508F8A607050855
:0801C700E508B40A0375080005
:0901CF00D007D000D0D0D0E032FE
:10000300E4FDFCC3ED9FEC9E5015E4FBFA0BBB0033
:0F001300010AEB64784A70F50DBD00010C80E422
:0100220022BB
:040176008F1B8D1C32
:10017A00E4F9E9C3951C5029E4F580D2A2C2A2E5AC
:10018A001B2990022C93F580D2A3C2A3740929F8E3
:10019A00E6F580D2A2C2A27FC87E001200030980BF
:0101AA00D183
:0101AB002231
:10002600AF11AE12AD13AC14AB15C3EF648094B030
:100036004022D3EF648094B9501AEFF5823395E0ED
:10004600F58374F12582F58274013583F583E49393
:10005600F5098003E4F509C3EE648094B0401FD32C
:10006600EE648094B95017AF06EF3395E0FE74F155
:100076002FF58274013EF583E493F50A8003E4F5D7
:100086000ABD2E0990022BE493F50B8003E4F50BD1
:10009600C3EC648094B0401FD3EC648094B95017CD
:1000A600AF04EF3395E0FE74F12FF58274013EF54F
:1000B60083E493F50C8003E4F50CC3EB648094B001
:1000C600401ED3EB648094B95016AF03EF3395E02E
:1000D600FE74F12FF58274013EF583E493F50D224B
:0300E600E4F50D31
:0100E90022F4
:030000000200EA11
:0C00EA00787FE4F6D8FD75811C0201311E
:1001F500BB010689828A83E0225002E722BBFE0208
:09020500E32289828A83E493223A
:1000F6000201D8E493A3F8E493A34003F68001F247
:1001060008DFF48029E493A3F85407240CC8C3330A
:10011600C4540F4420C8834004F456800146F6DFD9
:10012600E4800B010204081020408090024AE47E1D
:10013600019360BCA3FF543F30E509541FFEE493CE
:10014600A360010ECF54C025E060A840B8E493A395
:10015600FAE493A3F8E493A3C8C582C8CAC583CAC0
:10016600F0A3C8C582C8CAC583CADFE9DEE780BE78
:01024D0000B0
:00000001FF
